{
  "contractName": "AqgGuard",
  "abi": [
    {
      "inputs": [
        {
          "internalType": "address",
          "name": "coinContractAddress",
          "type": "address"
        },
        {
          "internalType": "address",
          "name": "contributorAddress",
          "type": "address"
        }
      ],
      "stateMutability": "nonpayable",
      "type": "constructor"
    },
    {
      "anonymous": false,
      "inputs": [
        {
          "indexed": false,
          "internalType": "address",
          "name": "investor",
          "type": "address"
        },
        {
          "indexed": false,
          "internalType": "uint256",
          "name": "amount",
          "type": "uint256"
        }
      ],
      "name": "Funding",
      "type": "event"
    },
    {
      "anonymous": false,
      "inputs": [
        {
          "indexed": false,
          "internalType": "uint8",
          "name": "metric",
          "type": "uint8"
        },
        {
          "indexed": false,
          "internalType": "uint8",
          "name": "level",
          "type": "uint8"
        },
        {
          "indexed": false,
          "internalType": "uint256",
          "name": "oldReward",
          "type": "uint256"
        },
        {
          "indexed": false,
          "internalType": "uint256",
          "name": "newReward",
          "type": "uint256"
        }
      ],
      "name": "LevelReward",
      "type": "event"
    },
    {
      "anonymous": false,
      "inputs": [
        {
          "indexed": false,
          "internalType": "uint8",
          "name": "metric",
          "type": "uint8"
        },
        {
          "indexed": false,
          "internalType": "uint8",
          "name": "level",
          "type": "uint8"
        },
        {
          "indexed": false,
          "internalType": "uint16",
          "name": "oldThreshold",
          "type": "uint16"
        },
        {
          "indexed": false,
          "internalType": "uint16",
          "name": "newThrehsold",
          "type": "uint16"
        }
      ],
      "name": "LevelThreshold",
      "type": "event"
    },
    {
      "anonymous": false,
      "inputs": [
        {
          "indexed": false,
          "internalType": "address",
          "name": "oldContributor",
          "type": "address"
        },
        {
          "indexed": false,
          "internalType": "address",
          "name": "newContributor",
          "type": "address"
        }
      ],
      "name": "NewContributor",
      "type": "event"
    },
    {
      "anonymous": false,
      "inputs": [
        {
          "indexed": true,
          "internalType": "address",
          "name": "_from",
          "type": "address"
        },
        {
          "indexed": true,
          "internalType": "address",
          "name": "_to",
          "type": "address"
        }
      ],
      "name": "OwnershipTransferred",
      "type": "event"
    },
    {
      "anonymous": false,
      "inputs": [
        {
          "indexed": false,
          "internalType": "uint8",
          "name": "metric",
          "type": "uint8"
        },
        {
          "indexed": false,
          "internalType": "uint8",
          "name": "level",
          "type": "uint8"
        },
        {
          "indexed": false,
          "internalType": "address",
          "name": "rewardee",
          "type": "address"
        },
        {
          "indexed": false,
          "internalType": "uint256",
          "name": "reward",
          "type": "uint256"
        }
      ],
      "name": "Reward",
      "type": "event"
    },
    {
      "inputs": [],
      "name": "acceptOwnership",
      "outputs": [],
      "stateMutability": "nonpayable",
      "type": "function"
    },
    {
      "inputs": [],
      "name": "aqgCoin",
      "outputs": [
        {
          "internalType": "contract ERC20Interface",
          "name": "",
          "type": "address"
        }
      ],
      "stateMutability": "view",
      "type": "function",
      "constant": true
    },
    {
      "inputs": [],
      "name": "contributor",
      "outputs": [
        {
          "internalType": "address",
          "name": "",
          "type": "address"
        }
      ],
      "stateMutability": "view",
      "type": "function",
      "constant": true
    },
    {
      "inputs": [],
      "name": "currentOwner",
      "outputs": [
        {
          "internalType": "address",
          "name": "",
          "type": "address"
        }
      ],
      "stateMutability": "view",
      "type": "function",
      "constant": true
    },
    {
      "inputs": [],
      "name": "newOwner",
      "outputs": [
        {
          "internalType": "address",
          "name": "",
          "type": "address"
        }
      ],
      "stateMutability": "view",
      "type": "function",
      "constant": true
    },
    {
      "inputs": [
        {
          "internalType": "uint8",
          "name": "",
          "type": "uint8"
        }
      ],
      "name": "rewardsMap10",
      "outputs": [
        {
          "internalType": "uint256",
          "name": "",
          "type": "uint256"
        }
      ],
      "stateMutability": "view",
      "type": "function",
      "constant": true
    },
    {
      "inputs": [
        {
          "internalType": "uint8",
          "name": "",
          "type": "uint8"
        }
      ],
      "name": "rewardsMap25",
      "outputs": [
        {
          "internalType": "uint256",
          "name": "",
          "type": "uint256"
        }
      ],
      "stateMutability": "view",
      "type": "function",
      "constant": true
    },
    {
      "inputs": [],
      "name": "streakSequenceThreshold",
      "outputs": [
        {
          "internalType": "uint8",
          "name": "",
          "type": "uint8"
        }
      ],
      "stateMutability": "view",
      "type": "function",
      "constant": true
    },
    {
      "inputs": [
        {
          "internalType": "uint8",
          "name": "",
          "type": "uint8"
        }
      ],
      "name": "thresholdsPm10",
      "outputs": [
        {
          "internalType": "uint16",
          "name": "",
          "type": "uint16"
        }
      ],
      "stateMutability": "view",
      "type": "function",
      "constant": true
    },
    {
      "inputs": [
        {
          "internalType": "uint8",
          "name": "",
          "type": "uint8"
        }
      ],
      "name": "thresholdsPm25",
      "outputs": [
        {
          "internalType": "uint16",
          "name": "",
          "type": "uint16"
        }
      ],
      "stateMutability": "view",
      "type": "function",
      "constant": true
    },
    {
      "inputs": [
        {
          "internalType": "address",
          "name": "_newOwner",
          "type": "address"
        }
      ],
      "name": "transferOwnership",
      "outputs": [],
      "stateMutability": "nonpayable",
      "type": "function"
    },
    {
      "inputs": [
        {
          "internalType": "uint8",
          "name": "metric",
          "type": "uint8"
        },
        {
          "internalType": "uint16[]",
          "name": "sequence",
          "type": "uint16[]"
        }
      ],
      "name": "checkStreak",
      "outputs": [
        {
          "internalType": "uint8",
          "name": "level",
          "type": "uint8"
        }
      ],
      "stateMutability": "view",
      "type": "function",
      "constant": true
    },
    {
      "inputs": [
        {
          "internalType": "uint8",
          "name": "metric",
          "type": "uint8"
        },
        {
          "internalType": "uint16[]",
          "name": "sequence",
          "type": "uint16[]"
        }
      ],
      "name": "requestReward",
      "outputs": [
        {
          "internalType": "uint8",
          "name": "level",
          "type": "uint8"
        }
      ],
      "stateMutability": "nonpayable",
      "type": "function"
    },
    {
      "inputs": [
        {
          "internalType": "uint256",
          "name": "amount",
          "type": "uint256"
        }
      ],
      "name": "fund",
      "outputs": [],
      "stateMutability": "payable",
      "type": "function",
      "payable": true
    },
    {
      "inputs": [
        {
          "internalType": "address",
          "name": "newContributor",
          "type": "address"
        }
      ],
      "name": "setContributor",
      "outputs": [],
      "stateMutability": "nonpayable",
      "type": "function"
    },
    {
      "inputs": [
        {
          "internalType": "uint8",
          "name": "newStreakThreshold",
          "type": "uint8"
        }
      ],
      "name": "setStreakSequenceThreshold",
      "outputs": [],
      "stateMutability": "nonpayable",
      "type": "function"
    },
    {
      "inputs": [
        {
          "internalType": "uint8",
          "name": "metric",
          "type": "uint8"
        },
        {
          "internalType": "uint8",
          "name": "level",
          "type": "uint8"
        },
        {
          "internalType": "uint16",
          "name": "newThreshold",
          "type": "uint16"
        }
      ],
      "name": "setMetricLevelThreshold",
      "outputs": [],
      "stateMutability": "nonpayable",
      "type": "function"
    },
    {
      "inputs": [
        {
          "internalType": "uint8",
          "name": "metric",
          "type": "uint8"
        },
        {
          "internalType": "uint8",
          "name": "level",
          "type": "uint8"
        },
        {
          "internalType": "uint256",
          "name": "newReward",
          "type": "uint256"
        }
      ],
      "name": "setMetricLevelReward",
      "outputs": [],
      "stateMutability": "nonpayable",
      "type": "function"
    }
  ],
  "bytecode": "0x60806040526007600260146101000a81548160ff021916908360ff1602179055503480156200002d57600080fd5b5060405162001d2038038062001d20833981810160405281019062000053919062000187565b336000806101000a81548173ffffffffffffffffffffffffffffffffffffffff021916908373ffffffffffffffffffffffffffffffffffffffff16021790555081600260006101000a81548173ffffffffffffffffffffffffffffffffffffffff021916908373ffffffffffffffffffffffffffffffffffffffff16021790555080600360006101000a81548173ffffffffffffffffffffffffffffffffffffffff021916908373ffffffffffffffffffffffffffffffffffffffff1602179055505050620001ce565b600080fd5b600073ffffffffffffffffffffffffffffffffffffffff82169050919050565b60006200014f8262000122565b9050919050565b620001618162000142565b81146200016d57600080fd5b50565b600081519050620001818162000156565b92915050565b60008060408385031215620001a157620001a06200011d565b5b6000620001b18582860162000170565b9250506020620001c48582860162000170565b9150509250929050565b611b4280620001de6000396000f3fe608060405260043610610125576000357c010000000000000000000000000000000000000000000000000000000090048063b387ef92116100b2578063d4ee1d9011610081578063d4ee1d901461038c578063e4b6b31f146103b7578063e660180b146103e0578063f2fde38b1461041d578063f9eba6621461044657610125565b8063b387ef92146102ef578063b9d545151461031a578063ba80d78714610345578063ca1d209d1461037057610125565b8063717c0fb4116100f9578063717c0fb4146101f857806379ba50971461023557806381ebfabf1461024c5780638f6d0e28146102895780639fcc4545146102b257610125565b8062d0d0b71461012a578063285178b3146101675780632c1f1c6d146101a4578063638a4111146101cd575b600080fd5b34801561013657600080fd5b50610151600480360381019061014c91906112d5565b61046f565b60405161015e919061131b565b60405180910390f35b34801561017357600080fd5b5061018e600480360381019061018991906114c9565b610487565b60405161019b9190611534565b60405180910390f35b3480156101b057600080fd5b506101cb60048036038101906101c691906115ad565b6107fd565b005b3480156101d957600080fd5b506101e2610930565b6040516101ef9190611534565b60405180910390f35b34801561020457600080fd5b5061021f600480360381019061021a91906112d5565b610943565b60405161022c91906115e9565b60405180910390f35b34801561024157600080fd5b5061024a610964565b005b34801561025857600080fd5b50610273600480360381019061026e91906112d5565b610b36565b604051610280919061131b565b60405180910390f35b34801561029557600080fd5b506102b060048036038101906102ab91906112d5565b610b4e565b005b3480156102be57600080fd5b506102d960048036038101906102d491906114c9565b610bfa565b6040516102e69190611534565b60405180910390f35b3480156102fb57600080fd5b50610304610d96565b6040516103119190611613565b60405180910390f35b34801561032657600080fd5b5061032f610dba565b60405161033c919061168d565b60405180910390f35b34801561035157600080fd5b5061035a610de0565b6040516103679190611613565b60405180910390f35b61038a600480360381019061038591906116d4565b610e06565b005b34801561039857600080fd5b506103a1610f01565b6040516103ae9190611613565b60405180910390f35b3480156103c357600080fd5b506103de60048036038101906103d99190611701565b610f27565b005b3480156103ec57600080fd5b50610407600480360381019061040291906112d5565b611070565b60405161041491906115e9565b60405180910390f35b34801561042957600080fd5b50610444600480360381019061043f91906115ad565b611091565b005b34801561045257600080fd5b5061046d60048036038101906104689190611754565b611163565b005b60056020528060005260406000206000915090505481565b6000805b82518160ff1610156107f65760008060008060008060018a60ff16146104b25760076104b5565b60065b905060008790505b600260149054906101000a900460ff16886104d891906117d6565b60ff168160ff161080156104ef575089518160ff16105b1561073757816000600160ff16815260200190815260200160002060009054906101000a900461ffff1661ffff168a8260ff16815181106105335761053261180d565b5b602002602001015161ffff1611158015610550575060018960ff16105b156105645786806105609061183c565b9750505b816000600260ff16815260200190815260200160002060009054906101000a900461ffff1661ffff168a8260ff16815181106105a3576105a261180d565b5b602002602001015161ffff16111580156105c0575060028960ff16105b156105d45785806105d09061183c565b9650505b816000600360ff16815260200190815260200160002060009054906101000a900461ffff1661ffff168a8260ff16815181106106135761061261180d565b5b602002602001015161ffff1611158015610630575060038960ff16105b156106445784806106409061183c565b9550505b816000600460ff16815260200190815260200160002060009054906101000a900461ffff1661ffff168a8260ff16815181106106835761068261180d565b5b602002602001015161ffff16111580156106a0575060048960ff16105b156106b45783806106b09061183c565b9450505b816000600560ff16815260200190815260200160002060009054906101000a900461ffff1661ffff168a8260ff16815181106106f3576106f261180d565b5b602002602001015161ffff1611158015610710575060058960ff16105b156107245782806107209061183c565b9350505b808061072f9061183c565b9150506104bd565b50600260149054906101000a900460ff1660ff168660ff161061075957600197505b600260149054906101000a900460ff1660ff168560ff161061077a57600297505b600260149054906101000a900460ff1660ff168460ff161061079b57600397505b600260149054906101000a900460ff1660ff168360ff16106107bc57600497505b600260149054906101000a900460ff1660ff168260ff16106107dd57600597505b50505050505080806107ee9061183c565b91505061048b565b5092915050565b60008054906101000a900473ffffffffffffffffffffffffffffffffffffffff1673ffffffffffffffffffffffffffffffffffffffff163373ffffffffffffffffffffffffffffffffffffffff161461088b576040517f08c379a0000000000000000000000000000000000000000000000000000000008152600401610882906118c3565b60405180910390fd5b6000600360009054906101000a900473ffffffffffffffffffffffffffffffffffffffff16905081600360006101000a81548173ffffffffffffffffffffffffffffffffffffffff021916908373ffffffffffffffffffffffffffffffffffffffff1602179055507fc1844d3a54d11d7bc67c06f33d2789988eb4145b51d6dd60a71531805372c5be81836040516109249291906118e3565b60405180910390a15050565b600260149054906101000a900460ff1681565b60066020528060005260406000206000915054906101000a900461ffff1681565b600160009054906101000a900473ffffffffffffffffffffffffffffffffffffffff1673ffffffffffffffffffffffffffffffffffffffff163373ffffffffffffffffffffffffffffffffffffffff16146109f4576040517f08c379a00000000000000000000000000000000000000000000000000000000081526004016109eb90611958565b60405180910390fd5b600160009054906101000a900473ffffffffffffffffffffffffffffffffffffffff1673ffffffffffffffffffffffffffffffffffffffff1660008054906101000a900473ffffffffffffffffffffffffffffffffffffffff1673ffffffffffffffffffffffffffffffffffffffff167f8be0079c531659141344cd1fd0a4f28419497f9722a3daafe3b4186f6b6457e060405160405180910390a3600160009054906101000a900473ffffffffffffffffffffffffffffffffffffffff166000806101000a81548173ffffffffffffffffffffffffffffffffffffffff021916908373ffffffffffffffffffffffffffffffffffffffff1602179055506000600160006101000a81548173ffffffffffffffffffffffffffffffffffffffff021916908373ffffffffffffffffffffffffffffffffffffffff160217905550565b60046020528060005260406000206000915090505481565b60008054906101000a900473ffffffffffffffffffffffffffffffffffffffff1673ffffffffffffffffffffffffffffffffffffffff163373ffffffffffffffffffffffffffffffffffffffff1614610bdc576040517f08c379a0000000000000000000000000000000000000000000000000000000008152600401610bd3906118c3565b60405180910390fd5b80600260146101000a81548160ff021916908360ff16021790555050565b60008060018460ff1614610c0f576005610c12565b60045b90506000610c208585610487565b905060008160ff161115610d8b5760008260008360ff1660ff168152602001908152602001600020549050600260009054906101000a900473ffffffffffffffffffffffffffffffffffffffff1673ffffffffffffffffffffffffffffffffffffffff1663a9059cbb600360009054906101000a900473ffffffffffffffffffffffffffffffffffffffff16836040518363ffffffff167c0100000000000000000000000000000000000000000000000000000000028152600401610ce6929190611978565b6020604051808303816000875af1158015610d05573d6000803e3d6000fd5b505050506040513d601f19601f82011682018060405250810190610d2991906119d9565b507fa255b48835b326c5f366d3fc36d09a1f5eb1f0654748e0d8153fa16ca7e0ff388683600360009054906101000a900473ffffffffffffffffffffffffffffffffffffffff1684604051610d819493929190611a06565b60405180910390a1505b809250505092915050565b60008054906101000a900473ffffffffffffffffffffffffffffffffffffffff1681565b600260009054906101000a900473ffffffffffffffffffffffffffffffffffffffff1681565b600360009054906101000a900473ffffffffffffffffffffffffffffffffffffffff1681565b600260009054906101000a900473ffffffffffffffffffffffffffffffffffffffff1673ffffffffffffffffffffffffffffffffffffffff166323b872dd3330846040518463ffffffff167c0100000000000000000000000000000000000000000000000000000000028152600401610e8193929190611a4b565b6020604051808303816000875af1158015610ea0573d6000803e3d6000fd5b505050506040513d601f19601f82011682018060405250810190610ec491906119d9565b507f1af855f8ecf9e2874e8d95b2f5b91f1afa7cea4cfac27e00fb165ebec0e671af3382604051610ef6929190611978565b60405180910390a150565b600160009054906101000a900473ffffffffffffffffffffffffffffffffffffffff1681565b60008054906101000a900473ffffffffffffffffffffffffffffffffffffffff1673ffffffffffffffffffffffffffffffffffffffff163373ffffffffffffffffffffffffffffffffffffffff1614610fb5576040517f08c379a0000000000000000000000000000000000000000000000000000000008152600401610fac906118c3565b60405180910390fd5b600060018460ff1614610fc9576007610fcc565b60065b905060008160008560ff1660ff16815260200190815260200160002060009054906101000a900461ffff169050828260008660ff1660ff16815260200190815260200160002060006101000a81548161ffff021916908361ffff1602179055507fee05fa3e3c8b345ff9640ac884f79829a910bdf7a77cece4dce7a30e85dcdd52858583866040516110619493929190611a82565b60405180910390a15050505050565b60076020528060005260406000206000915054906101000a900461ffff1681565b60008054906101000a900473ffffffffffffffffffffffffffffffffffffffff1673ffffffffffffffffffffffffffffffffffffffff163373ffffffffffffffffffffffffffffffffffffffff161461111f576040517f08c379a0000000000000000000000000000000000000000000000000000000008152600401611116906118c3565b60405180910390fd5b80600160006101000a81548173ffffffffffffffffffffffffffffffffffffffff021916908373ffffffffffffffffffffffffffffffffffffffff16021790555050565b60008054906101000a900473ffffffffffffffffffffffffffffffffffffffff1673ffffffffffffffffffffffffffffffffffffffff163373ffffffffffffffffffffffffffffffffffffffff16146111f1576040517f08c379a00000000000000000000000000000000000000000000000000000000081526004016111e8906118c3565b60405180910390fd5b600060018460ff1614611205576005611208565b60045b905060008160008560ff1660ff168152602001908152602001600020549050828260008660ff1660ff168152602001908152602001600020819055507ff624841d1e6bfcc9eea05fc67068883249d6ea1c0c1c20dbff7a94bfb1dd97c0858583866040516112799493929190611ac7565b60405180910390a15050505050565b6000604051905090565b600080fd5b600080fd5b600060ff82169050919050565b6112b28161129c565b81146112bd57600080fd5b50565b6000813590506112cf816112a9565b92915050565b6000602082840312156112eb576112ea611292565b5b60006112f9848285016112c0565b91505092915050565b6000819050919050565b61131581611302565b82525050565b6000602082019050611330600083018461130c565b92915050565b600080fd5b6000601f19601f8301169050919050565b7f4e487b7100000000000000000000000000000000000000000000000000000000600052604160045260246000fd5b6113848261133b565b810181811067ffffffffffffffff821117156113a3576113a261134c565b5b80604052505050565b60006113b6611288565b90506113c2828261137b565b919050565b600067ffffffffffffffff8211156113e2576113e161134c565b5b602082029050602081019050919050565b600080fd5b600061ffff82169050919050565b61140f816113f8565b811461141a57600080fd5b50565b60008135905061142c81611406565b92915050565b6000611445611440846113c7565b6113ac565b90508083825260208201905060208402830185811115611468576114676113f3565b5b835b81811015611491578061147d888261141d565b84526020840193505060208101905061146a565b5050509392505050565b600082601f8301126114b0576114af611336565b5b81356114c0848260208601611432565b91505092915050565b600080604083850312156114e0576114df611292565b5b60006114ee858286016112c0565b925050602083013567ffffffffffffffff81111561150f5761150e611297565b5b61151b8582860161149b565b9150509250929050565b61152e8161129c565b82525050565b60006020820190506115496000830184611525565b92915050565b600073ffffffffffffffffffffffffffffffffffffffff82169050919050565b600061157a8261154f565b9050919050565b61158a8161156f565b811461159557600080fd5b50565b6000813590506115a781611581565b92915050565b6000602082840312156115c3576115c2611292565b5b60006115d184828501611598565b91505092915050565b6115e3816113f8565b82525050565b60006020820190506115fe60008301846115da565b92915050565b61160d8161156f565b82525050565b60006020820190506116286000830184611604565b92915050565b6000819050919050565b600061165361164e6116498461154f565b61162e565b61154f565b9050919050565b600061166582611638565b9050919050565b60006116778261165a565b9050919050565b6116878161166c565b82525050565b60006020820190506116a2600083018461167e565b92915050565b6116b181611302565b81146116bc57600080fd5b50565b6000813590506116ce816116a8565b92915050565b6000602082840312156116ea576116e9611292565b5b60006116f8848285016116bf565b91505092915050565b60008060006060848603121561171a57611719611292565b5b6000611728868287016112c0565b9350506020611739868287016112c0565b925050604061174a8682870161141d565b9150509250925092565b60008060006060848603121561176d5761176c611292565b5b600061177b868287016112c0565b935050602061178c868287016112c0565b925050604061179d868287016116bf565b9150509250925092565b7f4e487b7100000000000000000000000000000000000000000000000000000000600052601160045260246000fd5b60006117e18261129c565b91506117ec8361129c565b92508260ff03821115611802576118016117a7565b5b828201905092915050565b7f4e487b7100000000000000000000000000000000000000000000000000000000600052603260045260246000fd5b60006118478261129c565b915060ff82141561185b5761185a6117a7565b5b600182019050919050565b600082825260208201905092915050565b7f4f6e6c79206f776e65722063616e20646f20746869732e000000000000000000600082015250565b60006118ad601783611866565b91506118b882611877565b602082019050919050565b600060208201905081810360008301526118dc816118a0565b9050919050565b60006040820190506118f86000830185611604565b6119056020830184611604565b9392505050565b7f4f6e6c79206e6577206f776e65722063616e206163636570742e000000000000600082015250565b6000611942601a83611866565b915061194d8261190c565b602082019050919050565b6000602082019050818103600083015261197181611935565b9050919050565b600060408201905061198d6000830185611604565b61199a602083018461130c565b9392505050565b60008115159050919050565b6119b6816119a1565b81146119c157600080fd5b50565b6000815190506119d3816119ad565b92915050565b6000602082840312156119ef576119ee611292565b5b60006119fd848285016119c4565b91505092915050565b6000608082019050611a1b6000830187611525565b611a286020830186611525565b611a356040830185611604565b611a42606083018461130c565b95945050505050565b6000606082019050611a606000830186611604565b611a6d6020830185611604565b611a7a604083018461130c565b949350505050565b6000608082019050611a976000830187611525565b611aa46020830186611525565b611ab160408301856115da565b611abe60608301846115da565b95945050505050565b6000608082019050611adc6000830187611525565b611ae96020830186611525565b611af6604083018561130c565b611b03606083018461130c565b9594505050505056fea2646970667358221220d59b2da1ee18c4e792babd34548e9dbe8c581a79c51babd9fc94ee8ac6424c5d64736f6c634300080b0033",
  "immutableReferences": {},
  "source": "pragma solidity ^0.8.11;\r\n//SPDX-License-Identifier: LGPL\r\n\r\nimport \"./Owned.sol\";\r\nimport \"./ERC20Interface.sol\";\r\n\r\ncontract AqgGuard is Owned {\r\n    // the AQG token contract\r\n    ERC20Interface public aqgCoin;\r\n\r\n    // number of days of successful values to count as streak\r\n    uint8 public streakSequenceThreshold = 7;\r\n\r\n    // active contributor\r\n    address public contributor;\r\n\r\n    // Targets 4-1 plus AQG levels mapped to coin rewards\r\n    mapping(uint8 => uint256) public rewardsMap25;\r\n    mapping(uint8 => uint256) public rewardsMap10;\r\n\r\n    // Each level has a thrshold to be kept for a streak\r\n    mapping(uint8 => uint16) public thresholdsPm25;\r\n    mapping(uint8 => uint16) public thresholdsPm10;\r\n\r\n    // Event fired when a reward is in effect for a streak\r\n    event Reward(uint8 metric, uint8 level, address rewardee, uint256 reward);\r\n\r\n    // Event is fired when new funding amount is deposited in the smart contract\r\n    event Funding(address investor, uint256 amount);\r\n\r\n    // Event fired when the contributors change\r\n    event NewContributor(address oldContributor, address newContributor);\r\n\r\n    // Event fired when level thresholds for metrics change\r\n    event LevelThreshold(\r\n        uint8 metric,\r\n        uint8 level,\r\n        uint16 oldThreshold,\r\n        uint16 newThrehsold\r\n    );\r\n\r\n    // Event fired when level rewards for metrics change\r\n    event LevelReward(\r\n        uint8 metric,\r\n        uint8 level,\r\n        uint256 oldReward,\r\n        uint256 newReward\r\n    );\r\n\r\n    // This smart contract is dependent on the AQG coin\r\n    // Needs the controbutor address as initial destination for rewards\r\n    constructor(address coinContractAddress, address contributorAddress)\r\n        Owned()\r\n    {\r\n        aqgCoin = ERC20Interface(coinContractAddress);\r\n        contributor = contributorAddress;\r\n    }\r\n\r\n    // read-only method for verifying that a sample reaches a streak\r\n    function checkStreak(uint8 metric, uint16[] memory sequence)\r\n        public\r\n        view\r\n        returns (uint8 level)\r\n    {\r\n        level = 0;\r\n        for (uint8 day = 0; day < sequence.length; day++) {\r\n            uint8 streakT1 = 0;\r\n            uint8 streakT2 = 0;\r\n            uint8 streakT3 = 0;\r\n            uint8 streakT4 = 0;\r\n            uint8 streakAqg = 0;\r\n            mapping(uint8 => uint16) storage thresholds = metric == 1\r\n                ? thresholdsPm25\r\n                : thresholdsPm10;\r\n            for (\r\n                uint8 aheadDay = day;\r\n                (aheadDay < day + streakSequenceThreshold) &&\r\n                    (aheadDay < sequence.length);\r\n                aheadDay++\r\n            ) {\r\n                if (sequence[aheadDay] <= thresholds[1] && level < 1)\r\n                    streakT1++;\r\n                if (sequence[aheadDay] <= thresholds[2] && level < 2)\r\n                    streakT2++;\r\n                if (sequence[aheadDay] <= thresholds[3] && level < 3)\r\n                    streakT3++;\r\n                if (sequence[aheadDay] <= thresholds[4] && level < 4)\r\n                    streakT4++;\r\n                if (sequence[aheadDay] <= thresholds[5] && level < 5)\r\n                    streakAqg++;\r\n            }\r\n            if (streakT1 >= streakSequenceThreshold) level = 1;\r\n            if (streakT2 >= streakSequenceThreshold) level = 2;\r\n            if (streakT3 >= streakSequenceThreshold) level = 3;\r\n            if (streakT4 >= streakSequenceThreshold) level = 4;\r\n            if (streakAqg >= streakSequenceThreshold) level = 5;\r\n        }\r\n        return level;\r\n    }\r\n\r\n    // attempt to initiate a reward based on a sequence\r\n    // attempting party should have the sequence verified before the tx to save gas in case of failure\r\n    function requestReward(uint8 metric, uint16[] memory sequence)\r\n        public\r\n        returns (uint8 level)\r\n    {\r\n        mapping(uint8 => uint256) storage rewardsMap = metric == 1\r\n            ? rewardsMap25\r\n            : rewardsMap10;\r\n        uint8 streakLevel = checkStreak(metric, sequence);\r\n        if (streakLevel > 0) {\r\n            uint256 reward = rewardsMap[streakLevel];\r\n            aqgCoin.transfer(contributor, reward);\r\n            emit Reward(metric, streakLevel, contributor, reward);\r\n        }\r\n        return streakLevel;\r\n    }\r\n\r\n    // A dedicated function to indicate funding as an event\r\n    // Funding can happen by simply transfering coins to the address\r\n    // of this contract. Funding is accepted by anyone.\r\n    function fund(uint256 amount) public payable {\r\n        aqgCoin.transferFrom(msg.sender, address(this), amount);\r\n        emit Funding(msg.sender, amount);\r\n    }\r\n\r\n    // Sets a new contributor who will receive rewards afther the change.\r\n    // Available only for contract owner.\r\n    function setContributor(address newContributor) public onlyOwner {\r\n        address oldContributor = contributor;\r\n        contributor = newContributor;\r\n        emit NewContributor(oldContributor, newContributor);\r\n    }\r\n\r\n    // Sets a new thresholdvalue for indication of a streak\r\n    // Available only for contract owner.\r\n    function setStreakSequenceThreshold(uint8 newStreakThreshold)\r\n        public\r\n        onlyOwner\r\n    {\r\n        streakSequenceThreshold = newStreakThreshold;\r\n    }\r\n\r\n    // Changes the levels threshold for specificied metric\r\n    // Available only for contract owner.\r\n    function setMetricLevelThreshold(\r\n        uint8 metric,\r\n        uint8 level,\r\n        uint16 newThreshold\r\n    ) public onlyOwner {\r\n        mapping(uint8 => uint16) storage thresholds = metric == 1\r\n            ? thresholdsPm25\r\n            : thresholdsPm10;\r\n        uint16 oldThreshold = thresholds[level];\r\n        thresholds[level] = newThreshold;\r\n        emit LevelThreshold(metric, level, oldThreshold, newThreshold);\r\n    }\r\n\r\n    // Changes the level rewards for specified metric\r\n    // Available only for contract owner.\r\n    function setMetricLevelReward(\r\n        uint8 metric,\r\n        uint8 level,\r\n        uint256 newReward\r\n    ) public onlyOwner {\r\n        mapping(uint8 => uint256) storage rewardsMap = metric == 1\r\n            ? rewardsMap25\r\n            : rewardsMap10;\r\n        uint256 oldReward = rewardsMap[level];\r\n        rewardsMap[level] = newReward;\r\n        emit LevelReward(metric, level, oldReward, newReward);\r\n    }\r\n}\r\n",
  "sourcePath": "C:\\Users\\X1 4Gen\\Developer\\cotown-contracts\\contracts\\AqgGuard.sol",
  "compiler": {
    "name": "solc",
    "version": "0.8.11+commit.d7f03943.Emscripten.clang"
  },
  "schemaVersion": "3.4.3",
  "updatedAt": "2022-02-06T15:12:55.121Z",
  "networkType": "ethereum",
  "devdoc": {
    "kind": "dev",
    "methods": {},
    "version": 1
  },
  "userdoc": {
    "kind": "user",
    "methods": {},
    "version": 1
  }
}