{
  "contractName": "Erc20Aqg",
  "abi": [
    {
      "inputs": [],
      "stateMutability": "nonpayable",
      "type": "constructor"
    },
    {
      "anonymous": false,
      "inputs": [
        {
          "indexed": true,
          "internalType": "address",
          "name": "tokenOwner",
          "type": "address"
        },
        {
          "indexed": true,
          "internalType": "address",
          "name": "spender",
          "type": "address"
        },
        {
          "indexed": false,
          "internalType": "uint256",
          "name": "tokens",
          "type": "uint256"
        }
      ],
      "name": "Approval",
      "type": "event"
    },
    {
      "anonymous": false,
      "inputs": [
        {
          "indexed": true,
          "internalType": "address",
          "name": "_from",
          "type": "address"
        },
        {
          "indexed": true,
          "internalType": "address",
          "name": "_to",
          "type": "address"
        }
      ],
      "name": "OwnershipTransferred",
      "type": "event"
    },
    {
      "anonymous": false,
      "inputs": [
        {
          "indexed": true,
          "internalType": "address",
          "name": "from",
          "type": "address"
        },
        {
          "indexed": true,
          "internalType": "address",
          "name": "to",
          "type": "address"
        },
        {
          "indexed": false,
          "internalType": "uint256",
          "name": "tokens",
          "type": "uint256"
        }
      ],
      "name": "Transfer",
      "type": "event"
    },
    {
      "inputs": [],
      "name": "acceptOwnership",
      "outputs": [],
      "stateMutability": "nonpayable",
      "type": "function"
    },
    {
      "inputs": [],
      "name": "currentOwner",
      "outputs": [
        {
          "internalType": "address",
          "name": "",
          "type": "address"
        }
      ],
      "stateMutability": "view",
      "type": "function",
      "constant": true
    },
    {
      "inputs": [],
      "name": "decimals",
      "outputs": [
        {
          "internalType": "uint8",
          "name": "",
          "type": "uint8"
        }
      ],
      "stateMutability": "view",
      "type": "function",
      "constant": true
    },
    {
      "inputs": [],
      "name": "name",
      "outputs": [
        {
          "internalType": "string",
          "name": "",
          "type": "string"
        }
      ],
      "stateMutability": "view",
      "type": "function",
      "constant": true
    },
    {
      "inputs": [],
      "name": "newOwner",
      "outputs": [
        {
          "internalType": "address",
          "name": "",
          "type": "address"
        }
      ],
      "stateMutability": "view",
      "type": "function",
      "constant": true
    },
    {
      "inputs": [],
      "name": "symbol",
      "outputs": [
        {
          "internalType": "string",
          "name": "",
          "type": "string"
        }
      ],
      "stateMutability": "view",
      "type": "function",
      "constant": true
    },
    {
      "inputs": [
        {
          "internalType": "address",
          "name": "_newOwner",
          "type": "address"
        }
      ],
      "name": "transferOwnership",
      "outputs": [],
      "stateMutability": "nonpayable",
      "type": "function"
    },
    {
      "inputs": [
        {
          "internalType": "uint256",
          "name": "amount",
          "type": "uint256"
        },
        {
          "internalType": "address",
          "name": "beneficient",
          "type": "address"
        }
      ],
      "name": "mint",
      "outputs": [],
      "stateMutability": "nonpayable",
      "type": "function"
    },
    {
      "inputs": [],
      "name": "totalSupply",
      "outputs": [
        {
          "internalType": "uint256",
          "name": "",
          "type": "uint256"
        }
      ],
      "stateMutability": "view",
      "type": "function",
      "constant": true
    },
    {
      "inputs": [
        {
          "internalType": "address",
          "name": "tokenOwner",
          "type": "address"
        }
      ],
      "name": "balanceOf",
      "outputs": [
        {
          "internalType": "uint256",
          "name": "balance",
          "type": "uint256"
        }
      ],
      "stateMutability": "view",
      "type": "function",
      "constant": true
    },
    {
      "inputs": [
        {
          "internalType": "address",
          "name": "to",
          "type": "address"
        },
        {
          "internalType": "uint256",
          "name": "tokens",
          "type": "uint256"
        }
      ],
      "name": "transfer",
      "outputs": [
        {
          "internalType": "bool",
          "name": "success",
          "type": "bool"
        }
      ],
      "stateMutability": "nonpayable",
      "type": "function"
    },
    {
      "inputs": [
        {
          "internalType": "address",
          "name": "spender",
          "type": "address"
        },
        {
          "internalType": "uint256",
          "name": "tokens",
          "type": "uint256"
        }
      ],
      "name": "approve",
      "outputs": [
        {
          "internalType": "bool",
          "name": "success",
          "type": "bool"
        }
      ],
      "stateMutability": "nonpayable",
      "type": "function"
    },
    {
      "inputs": [
        {
          "internalType": "address",
          "name": "from",
          "type": "address"
        },
        {
          "internalType": "address",
          "name": "to",
          "type": "address"
        },
        {
          "internalType": "uint256",
          "name": "tokens",
          "type": "uint256"
        }
      ],
      "name": "transferFrom",
      "outputs": [
        {
          "internalType": "bool",
          "name": "success",
          "type": "bool"
        }
      ],
      "stateMutability": "nonpayable",
      "type": "function"
    },
    {
      "inputs": [
        {
          "internalType": "address",
          "name": "tokenOwner",
          "type": "address"
        },
        {
          "internalType": "address",
          "name": "spender",
          "type": "address"
        }
      ],
      "name": "allowance",
      "outputs": [
        {
          "internalType": "uint256",
          "name": "remaining",
          "type": "uint256"
        }
      ],
      "stateMutability": "view",
      "type": "function",
      "constant": true
    }
  ],
  "bytecode": "0x60806040523480156200001157600080fd5b50336000806101000a81548173ffffffffffffffffffffffffffffffffffffffff021916908373ffffffffffffffffffffffffffffffffffffffff1602179055506040518060400160405280600381526020017f4151470000000000000000000000000000000000000000000000000000000000815250600290805190602001906200009f9291906200021c565b5060405180606001604052806028815260200162001b696028913960039080519060200190620000d19291906200021c565b506012600460006101000a81548160ff021916908360ff160217905550600460009054906101000a900460ff1660ff16600a6200010f919062000459565b620f42406200011f9190620004aa565b600581905550600554600660008060009054906101000a900473ffffffffffffffffffffffffffffffffffffffff1673ffffffffffffffffffffffffffffffffffffffff1673ffffffffffffffffffffffffffffffffffffffff1681526020019081526020016000208190555060008054906101000a900473ffffffffffffffffffffffffffffffffffffffff1673ffffffffffffffffffffffffffffffffffffffff16600073ffffffffffffffffffffffffffffffffffffffff167fddf252ad1be2c89b69c2b068fc378daa952ba7f163c4a11628f55a4df523b3ef6005546040516200020e91906200051c565b60405180910390a36200059e565b8280546200022a9062000568565b90600052602060002090601f0160209004810192826200024e57600085556200029a565b82601f106200026957805160ff19168380011785556200029a565b828001600101855582156200029a579182015b82811115620002995782518255916020019190600101906200027c565b5b509050620002a99190620002ad565b5090565b5b80821115620002c8576000816000905550600101620002ae565b5090565b7f4e487b7100000000000000000000000000000000000000000000000000000000600052601160045260246000fd5b6000600282049050919050565b6000808291508390505b60018511156200035a57808604811115620003325762000331620002cc565b5b6001851615620003425780820291505b80810290506200035285620002fb565b945062000312565b94509492505050565b60008262000375576001905062000448565b8162000385576000905062000448565b81600181146200039e5760028114620003a957620003df565b600191505062000448565b60ff841115620003be57620003bd620002cc565b5b8360020a915084821115620003d857620003d7620002cc565b5b5062000448565b5060208310610133831016604e8410600b8410161715620004195782820a905083811115620004135762000412620002cc565b5b62000448565b62000428848484600162000308565b92509050818404811115620004425762000441620002cc565b5b81810290505b9392505050565b6000819050919050565b600062000466826200044f565b915062000473836200044f565b9250620004a27fffffffffffffffffffffffffffffffffffffffffffffffffffffffffffffffff848462000363565b905092915050565b6000620004b7826200044f565b9150620004c4836200044f565b9250817fffffffffffffffffffffffffffffffffffffffffffffffffffffffffffffffff04831182151516156200050057620004ff620002cc565b5b828202905092915050565b62000516816200044f565b82525050565b60006020820190506200053360008301846200050b565b92915050565b7f4e487b7100000000000000000000000000000000000000000000000000000000600052602260045260246000fd5b600060028204905060018216806200058157607f821691505b6020821081141562000598576200059762000539565b5b50919050565b6115bb80620005ae6000396000f3fe608060405234801561001057600080fd5b5060043610610107576000357c01000000000000000000000000000000000000000000000000000000009004806394bf804d116100a9578063b387ef9211610083578063b387ef921461026a578063d4ee1d9014610288578063dd62ed3e146102a6578063f2fde38b146102d657610107565b806394bf804d1461020057806395d89b411461021c578063a9059cbb1461023a57610107565b806323b872dd116100e557806323b872dd14610178578063313ce567146101a857806370a08231146101c657806379ba5097146101f657610107565b806306fdde031461010c578063095ea7b31461012a57806318160ddd1461015a575b600080fd5b6101146102f2565b6040516101219190610fff565b60405180910390f35b610144600480360381019061013f91906110ba565b610380565b6040516101519190611115565b60405180910390f35b610162610472565b60405161016f919061113f565b60405180910390f35b610192600480360381019061018d919061115a565b6104cd565b60405161019f9190611115565b60405180910390f35b6101b0610778565b6040516101bd91906111c9565b60405180910390f35b6101e060048036038101906101db91906111e4565b61078b565b6040516101ed919061113f565b60405180910390f35b6101fe6107d4565b005b61021a60048036038101906102159190611211565b6109a6565b005b610224610ae8565b6040516102319190610fff565b60405180910390f35b610254600480360381019061024f91906110ba565b610b76565b6040516102619190611115565b60405180910390f35b610272610d11565b60405161027f9190611260565b60405180910390f35b610290610d35565b60405161029d9190611260565b60405180910390f35b6102c060048036038101906102bb919061127b565b610d5b565b6040516102cd919061113f565b60405180910390f35b6102f060048036038101906102eb91906111e4565b610de2565b005b600380546102ff906112ea565b80601f016020809104026020016040519081016040528092919081815260200182805461032b906112ea565b80156103785780601f1061034d57610100808354040283529160200191610378565b820191906000526020600020905b81548152906001019060200180831161035b57829003601f168201915b505050505081565b600081600760003373ffffffffffffffffffffffffffffffffffffffff1673ffffffffffffffffffffffffffffffffffffffff16815260200190815260200160002060008573ffffffffffffffffffffffffffffffffffffffff1673ffffffffffffffffffffffffffffffffffffffff168152602001908152602001600020819055508273ffffffffffffffffffffffffffffffffffffffff163373ffffffffffffffffffffffffffffffffffffffff167f8c5be1e5ebec7d5bd14f71427d1e84f3dd0314c0f7b2291e5b200ac8c7c3b92584604051610460919061113f565b60405180910390a36001905092915050565b60006104c8600660008073ffffffffffffffffffffffffffffffffffffffff1673ffffffffffffffffffffffffffffffffffffffff16815260200190815260200160002054600554610eb490919063ffffffff16565b905090565b600061052182600660008773ffffffffffffffffffffffffffffffffffffffff1673ffffffffffffffffffffffffffffffffffffffff16815260200190815260200160002054610eb490919063ffffffff16565b600660008673ffffffffffffffffffffffffffffffffffffffff1673ffffffffffffffffffffffffffffffffffffffff168152602001908152602001600020819055506105f382600760008773ffffffffffffffffffffffffffffffffffffffff1673ffffffffffffffffffffffffffffffffffffffff16815260200190815260200160002060003373ffffffffffffffffffffffffffffffffffffffff1673ffffffffffffffffffffffffffffffffffffffff16815260200190815260200160002054610eb490919063ffffffff16565b600760008673ffffffffffffffffffffffffffffffffffffffff1673ffffffffffffffffffffffffffffffffffffffff16815260200190815260200160002060003373ffffffffffffffffffffffffffffffffffffffff1673ffffffffffffffffffffffffffffffffffffffff168152602001908152602001600020819055506106c582600660008673ffffffffffffffffffffffffffffffffffffffff1673ffffffffffffffffffffffffffffffffffffffff16815260200190815260200160002054610f0d90919063ffffffff16565b600660008573ffffffffffffffffffffffffffffffffffffffff1673ffffffffffffffffffffffffffffffffffffffff168152602001908152602001600020819055508273ffffffffffffffffffffffffffffffffffffffff168473ffffffffffffffffffffffffffffffffffffffff167fddf252ad1be2c89b69c2b068fc378daa952ba7f163c4a11628f55a4df523b3ef84604051610765919061113f565b60405180910390a3600190509392505050565b600460009054906101000a900460ff1681565b6000600660008373ffffffffffffffffffffffffffffffffffffffff1673ffffffffffffffffffffffffffffffffffffffff168152602001908152602001600020549050919050565b600160009054906101000a900473ffffffffffffffffffffffffffffffffffffffff1673ffffffffffffffffffffffffffffffffffffffff163373ffffffffffffffffffffffffffffffffffffffff1614610864576040517f08c379a000000000000000000000000000000000000000000000000000000000815260040161085b90611368565b60405180910390fd5b600160009054906101000a900473ffffffffffffffffffffffffffffffffffffffff1673ffffffffffffffffffffffffffffffffffffffff1660008054906101000a900473ffffffffffffffffffffffffffffffffffffffff1673ffffffffffffffffffffffffffffffffffffffff167f8be0079c531659141344cd1fd0a4f28419497f9722a3daafe3b4186f6b6457e060405160405180910390a3600160009054906101000a900473ffffffffffffffffffffffffffffffffffffffff166000806101000a81548173ffffffffffffffffffffffffffffffffffffffff021916908373ffffffffffffffffffffffffffffffffffffffff1602179055506000600160006101000a81548173ffffffffffffffffffffffffffffffffffffffff021916908373ffffffffffffffffffffffffffffffffffffffff160217905550565b60008054906101000a900473ffffffffffffffffffffffffffffffffffffffff1673ffffffffffffffffffffffffffffffffffffffff163373ffffffffffffffffffffffffffffffffffffffff1614610a34576040517f08c379a0000000000000000000000000000000000000000000000000000000008152600401610a2b906113d4565b60405180910390fd5b610a4982600554610f0d90919063ffffffff16565b600581905550610aa182600660008473ffffffffffffffffffffffffffffffffffffffff1673ffffffffffffffffffffffffffffffffffffffff16815260200190815260200160002054610f0d90919063ffffffff16565b600660008373ffffffffffffffffffffffffffffffffffffffff1673ffffffffffffffffffffffffffffffffffffffff168152602001908152602001600020819055505050565b60028054610af5906112ea565b80601f0160208091040260200160405190810160405280929190818152602001828054610b21906112ea565b8015610b6e5780601f10610b4357610100808354040283529160200191610b6e565b820191906000526020600020905b815481529060010190602001808311610b5157829003601f168201915b505050505081565b6000610bca82600660003373ffffffffffffffffffffffffffffffffffffffff1673ffffffffffffffffffffffffffffffffffffffff16815260200190815260200160002054610eb490919063ffffffff16565b600660003373ffffffffffffffffffffffffffffffffffffffff1673ffffffffffffffffffffffffffffffffffffffff16815260200190815260200160002081905550610c5f82600660008673ffffffffffffffffffffffffffffffffffffffff1673ffffffffffffffffffffffffffffffffffffffff16815260200190815260200160002054610f0d90919063ffffffff16565b600660008573ffffffffffffffffffffffffffffffffffffffff1673ffffffffffffffffffffffffffffffffffffffff168152602001908152602001600020819055508273ffffffffffffffffffffffffffffffffffffffff163373ffffffffffffffffffffffffffffffffffffffff167fddf252ad1be2c89b69c2b068fc378daa952ba7f163c4a11628f55a4df523b3ef84604051610cff919061113f565b60405180910390a36001905092915050565b60008054906101000a900473ffffffffffffffffffffffffffffffffffffffff1681565b600160009054906101000a900473ffffffffffffffffffffffffffffffffffffffff1681565b6000600760008473ffffffffffffffffffffffffffffffffffffffff1673ffffffffffffffffffffffffffffffffffffffff16815260200190815260200160002060008373ffffffffffffffffffffffffffffffffffffffff1673ffffffffffffffffffffffffffffffffffffffff16815260200190815260200160002054905092915050565b60008054906101000a900473ffffffffffffffffffffffffffffffffffffffff1673ffffffffffffffffffffffffffffffffffffffff163373ffffffffffffffffffffffffffffffffffffffff1614610e70576040517f08c379a0000000000000000000000000000000000000000000000000000000008152600401610e67906113d4565b60405180910390fd5b80600160006101000a81548173ffffffffffffffffffffffffffffffffffffffff021916908373ffffffffffffffffffffffffffffffffffffffff16021790555050565b600082821115610ef9576040517f08c379a0000000000000000000000000000000000000000000000000000000008152600401610ef090611440565b60405180910390fd5b8183610f05919061148f565b905092915050565b60008183610f1b91906114c3565b905082811015610f60576040517f08c379a0000000000000000000000000000000000000000000000000000000008152600401610f5790611565565b60405180910390fd5b92915050565b600081519050919050565b600082825260208201905092915050565b60005b83811015610fa0578082015181840152602081019050610f85565b83811115610faf576000848401525b50505050565b6000601f19601f8301169050919050565b6000610fd182610f66565b610fdb8185610f71565b9350610feb818560208601610f82565b610ff481610fb5565b840191505092915050565b600060208201905081810360008301526110198184610fc6565b905092915050565b600080fd5b600073ffffffffffffffffffffffffffffffffffffffff82169050919050565b600061105182611026565b9050919050565b61106181611046565b811461106c57600080fd5b50565b60008135905061107e81611058565b92915050565b6000819050919050565b61109781611084565b81146110a257600080fd5b50565b6000813590506110b48161108e565b92915050565b600080604083850312156110d1576110d0611021565b5b60006110df8582860161106f565b92505060206110f0858286016110a5565b9150509250929050565b60008115159050919050565b61110f816110fa565b82525050565b600060208201905061112a6000830184611106565b92915050565b61113981611084565b82525050565b60006020820190506111546000830184611130565b92915050565b60008060006060848603121561117357611172611021565b5b60006111818682870161106f565b93505060206111928682870161106f565b92505060406111a3868287016110a5565b9150509250925092565b600060ff82169050919050565b6111c3816111ad565b82525050565b60006020820190506111de60008301846111ba565b92915050565b6000602082840312156111fa576111f9611021565b5b60006112088482850161106f565b91505092915050565b6000806040838503121561122857611227611021565b5b6000611236858286016110a5565b92505060206112478582860161106f565b9150509250929050565b61125a81611046565b82525050565b60006020820190506112756000830184611251565b92915050565b6000806040838503121561129257611291611021565b5b60006112a08582860161106f565b92505060206112b18582860161106f565b9150509250929050565b7f4e487b7100000000000000000000000000000000000000000000000000000000600052602260045260246000fd5b6000600282049050600182168061130257607f821691505b60208210811415611316576113156112bb565b5b50919050565b7f4f6e6c79206e6577206f776e65722063616e206163636570742e000000000000600082015250565b6000611352601a83610f71565b915061135d8261131c565b602082019050919050565b6000602082019050818103600083015261138181611345565b9050919050565b7f4f6e6c79206f776e65722063616e20646f20746869732e000000000000000000600082015250565b60006113be601783610f71565b91506113c982611388565b602082019050919050565b600060208201905081810360008301526113ed816113b1565b9050919050565b7f756e6d65742062203c3d20610000000000000000000000000000000000000000600082015250565b600061142a600c83610f71565b9150611435826113f4565b602082019050919050565b600060208201905081810360008301526114598161141d565b9050919050565b7f4e487b7100000000000000000000000000000000000000000000000000000000600052601160045260246000fd5b600061149a82611084565b91506114a583611084565b9250828210156114b8576114b7611460565b5b828203905092915050565b60006114ce82611084565b91506114d983611084565b9250827fffffffffffffffffffffffffffffffffffffffffffffffffffffffffffffffff0382111561150e5761150d611460565b5b828201905092915050565b7f756e6d65742063203e3d20610000000000000000000000000000000000000000600082015250565b600061154f600c83610f71565b915061155a82611519565b602082019050919050565b6000602082019050818103600083015261157e81611542565b905091905056fea2646970667358221220677190df40562afff66b7073810c2846b79807dbc7ea9a86956f948493571c8e64736f6c634300080b0033536f7665726569676e204e6174757265204d6f6d656e74756d204861636b6174686f6e20436f696e",
  "immutableReferences": {},
  "source": "pragma solidity ^0.8.11;\r\nimport \"./Owned.sol\";\r\nimport \"./ERC20Interface.sol\";\r\n\r\n//SPDX-License-Identifier: LGPL\r\n\r\n// ----------------------------------------------------------------------------\r\n// Symbol      : AQG\r\n// Name        : Sovereign Nature Momentum Hackathon\r\n// Total supply: 1,000,000.000000000000000000\r\n// Decimals    : 18\r\n// ----------------------------------------------------------------------------\r\n\r\n// ----------------------------------------------------------------------------\r\n// Using Safe maths Library\r\n// ----------------------------------------------------------------------------\r\nlibrary SafeMath {\r\n    function add(uint256 a, uint256 b) internal pure returns (uint256 c) {\r\n        c = a + b;\r\n        require(c >= a, \"unmet c >= a\");\r\n    }\r\n\r\n    function sub(uint256 a, uint256 b) internal pure returns (uint256 c) {\r\n        require(b <= a, \"unmet b <= a\");\r\n        c = a - b;\r\n    }\r\n\r\n    function mul(uint256 a, uint256 b) internal pure returns (uint256 c) {\r\n        c = a * b;\r\n        require(a == 0 || c / a == b, \"unmet a == 0 || c / a == b\");\r\n    }\r\n\r\n    function div(uint256 a, uint256 b) internal pure returns (uint256 c) {\r\n        require(b > 0, \"unmet b > 0\");\r\n        c = a / b;\r\n    }\r\n}\r\n\r\n// ----------------------------------------------------------------------------\r\n// ERC20 Token, with the addition of symbol, name and decimals and a\r\n// fixed supply\r\n// ----------------------------------------------------------------------------\r\ncontract Erc20Aqg is ERC20Interface, Owned {\r\n    using SafeMath for uint256;\r\n\r\n    string public symbol;\r\n    string public name;\r\n    uint8 public decimals;\r\n    uint256 _totalSupply;\r\n\r\n    mapping(address => uint256) balances;\r\n    mapping(address => mapping(address => uint256)) allowed;\r\n\r\n    // ------------------------------------------------------------------------\r\n    // Constructor\r\n    // ------------------------------------------------------------------------\r\n    constructor() Owned() {\r\n        symbol = \"AQG\";\r\n        name = \"Sovereign Nature Momentum Hackathon Coin\";\r\n        decimals = 18;\r\n        _totalSupply = 1000000 * 10**uint256(decimals);\r\n        balances[currentOwner] = _totalSupply;\r\n        emit Transfer(address(0), currentOwner, _totalSupply);\r\n    }\r\n\r\n    // ------------------------------------------------------------------------\r\n    // Owner may decide to mint new tokens and assign them to a beneficient\r\n    // ------------------------------------------------------------------------\r\n    function mint(uint256 amount, address beneficient) public onlyOwner {\r\n        _totalSupply = _totalSupply.add(amount);\r\n        balances[beneficient] = balances[beneficient].add(amount);\r\n    }\r\n\r\n    // ------------------------------------------------------------------------\r\n    // Total supply\r\n    // ------------------------------------------------------------------------\r\n    function totalSupply() public view override returns (uint256) {\r\n        return _totalSupply.sub(balances[address(0)]);\r\n    }\r\n\r\n    // ------------------------------------------------------------------------\r\n    // Get the token balance for account `tokenOwner`\r\n    // ------------------------------------------------------------------------\r\n    function balanceOf(address tokenOwner)\r\n        public\r\n        view\r\n        override\r\n        returns (uint256 balance)\r\n    {\r\n        return balances[tokenOwner];\r\n    }\r\n\r\n    // ------------------------------------------------------------------------\r\n    // Transfer the balance from token owner's account to `to` account\r\n    // - Owner's account must have sufficient balance to transfer\r\n    // - 0 value transfers are allowed\r\n    // ------------------------------------------------------------------------\r\n    function transfer(address to, uint256 tokens)\r\n        public\r\n        override\r\n        returns (bool success)\r\n    {\r\n        balances[msg.sender] = balances[msg.sender].sub(tokens);\r\n        balances[to] = balances[to].add(tokens);\r\n        emit Transfer(msg.sender, to, tokens);\r\n        return true;\r\n    }\r\n\r\n    // ------------------------------------------------------------------------\r\n    // Token owner can approve for `spender` to transferFrom(...) `tokens`\r\n    // from the token owner's account\r\n    //\r\n    // https://github.com/ethereum/EIPs/blob/master/EIPS/eip-20-token-standard.md\r\n    // recommends that there are no checks for the approval double-spend attack\r\n    // as this should be implemented in user interfaces\r\n    // ------------------------------------------------------------------------\r\n    function approve(address spender, uint256 tokens)\r\n        public\r\n        override\r\n        returns (bool success)\r\n    {\r\n        allowed[msg.sender][spender] = tokens;\r\n        emit Approval(msg.sender, spender, tokens);\r\n        return true;\r\n    }\r\n\r\n    // ------------------------------------------------------------------------\r\n    // Transfer `tokens` from the `from` account to the `to` account\r\n    //\r\n    // The calling account must already have sufficient tokens approve(...)-d\r\n    // for spending from the `from` account and\r\n    // - From account must have sufficient balance to transfer\r\n    // - Spender must have sufficient allowance to transfer\r\n    // - 0 value transfers are allowed\r\n    // ------------------------------------------------------------------------\r\n    function transferFrom(\r\n        address from,\r\n        address to,\r\n        uint256 tokens\r\n    ) public override returns (bool success) {\r\n        balances[from] = balances[from].sub(tokens);\r\n        allowed[from][msg.sender] = allowed[from][msg.sender].sub(tokens);\r\n        balances[to] = balances[to].add(tokens);\r\n        emit Transfer(from, to, tokens);\r\n        return true;\r\n    }\r\n\r\n    // ------------------------------------------------------------------------\r\n    // Returns the amount of tokens approved by the owner that can be\r\n    // transferred to the spender's account\r\n    // ------------------------------------------------------------------------\r\n    function allowance(address tokenOwner, address spender)\r\n        public\r\n        view\r\n        override\r\n        returns (uint256 remaining)\r\n    {\r\n        return allowed[tokenOwner][spender];\r\n    }\r\n}\r\n",
  "sourcePath": "C:\\Users\\X1 4Gen\\Developer\\cotown-contracts\\contracts\\Erc20Aqg.sol",
  "compiler": {
    "name": "solc",
    "version": "0.8.11+commit.d7f03943.Emscripten.clang"
  },
  "schemaVersion": "3.4.3",
  "updatedAt": "2022-02-06T15:12:55.087Z",
  "networkType": "ethereum",
  "devdoc": {
    "kind": "dev",
    "methods": {},
    "version": 1
  },
  "userdoc": {
    "kind": "user",
    "methods": {},
    "version": 1
  }
}