{
  "contractName": "EtherFaucet",
  "abi": [
    {
      "constant": true,
      "inputs": [
        {
          "name": "",
          "type": "address"
        }
      ],
      "name": "limits",
      "outputs": [
        {
          "name": "",
          "type": "uint256"
        }
      ],
      "payable": false,
      "stateMutability": "view",
      "type": "function"
    },
    {
      "constant": true,
      "inputs": [],
      "name": "fundingActive",
      "outputs": [
        {
          "name": "",
          "type": "bool"
        }
      ],
      "payable": false,
      "stateMutability": "view",
      "type": "function"
    },
    {
      "constant": true,
      "inputs": [
        {
          "name": "",
          "type": "address"
        }
      ],
      "name": "funded",
      "outputs": [
        {
          "name": "",
          "type": "bool"
        }
      ],
      "payable": false,
      "stateMutability": "view",
      "type": "function"
    },
    {
      "constant": true,
      "inputs": [],
      "name": "fundedAccounts",
      "outputs": [
        {
          "name": "",
          "type": "uint256"
        }
      ],
      "payable": false,
      "stateMutability": "view",
      "type": "function"
    },
    {
      "constant": false,
      "inputs": [
        {
          "name": "account",
          "type": "address"
        },
        {
          "name": "allowedAccess",
          "type": "bool"
        }
      ],
      "name": "setAllowedAccess",
      "outputs": [],
      "payable": false,
      "stateMutability": "nonpayable",
      "type": "function"
    },
    {
      "constant": false,
      "inputs": [],
      "name": "acceptOwnership",
      "outputs": [],
      "payable": false,
      "stateMutability": "nonpayable",
      "type": "function"
    },
    {
      "constant": true,
      "inputs": [],
      "name": "owner",
      "outputs": [
        {
          "name": "",
          "type": "address"
        }
      ],
      "payable": false,
      "stateMutability": "view",
      "type": "function"
    },
    {
      "constant": true,
      "inputs": [
        {
          "name": "",
          "type": "address"
        }
      ],
      "name": "claims",
      "outputs": [
        {
          "name": "",
          "type": "uint256"
        }
      ],
      "payable": false,
      "stateMutability": "view",
      "type": "function"
    },
    {
      "constant": true,
      "inputs": [],
      "name": "newOwner",
      "outputs": [
        {
          "name": "",
          "type": "address"
        }
      ],
      "payable": false,
      "stateMutability": "view",
      "type": "function"
    },
    {
      "constant": true,
      "inputs": [
        {
          "name": "",
          "type": "address"
        }
      ],
      "name": "allowed",
      "outputs": [
        {
          "name": "",
          "type": "bool"
        }
      ],
      "payable": false,
      "stateMutability": "view",
      "type": "function"
    },
    {
      "constant": false,
      "inputs": [
        {
          "name": "_newOwner",
          "type": "address"
        }
      ],
      "name": "transferOwnership",
      "outputs": [],
      "payable": false,
      "stateMutability": "nonpayable",
      "type": "function"
    },
    {
      "inputs": [],
      "payable": false,
      "stateMutability": "nonpayable",
      "type": "constructor"
    },
    {
      "anonymous": false,
      "inputs": [
        {
          "indexed": false,
          "name": "amount",
          "type": "uint256"
        },
        {
          "indexed": false,
          "name": "source",
          "type": "address"
        }
      ],
      "name": "LoadEther",
      "type": "event"
    },
    {
      "anonymous": false,
      "inputs": [
        {
          "indexed": false,
          "name": "dst",
          "type": "address"
        },
        {
          "indexed": false,
          "name": "amount",
          "type": "uint256"
        }
      ],
      "name": "ClaimEther",
      "type": "event"
    },
    {
      "anonymous": false,
      "inputs": [
        {
          "indexed": false,
          "name": "newStipend",
          "type": "uint256"
        },
        {
          "indexed": false,
          "name": "operator",
          "type": "address"
        }
      ],
      "name": "StipendChanged",
      "type": "event"
    },
    {
      "anonymous": false,
      "inputs": [
        {
          "indexed": false,
          "name": "limit",
          "type": "uint256"
        },
        {
          "indexed": false,
          "name": "identity",
          "type": "address"
        }
      ],
      "name": "LimitChanged",
      "type": "event"
    },
    {
      "anonymous": false,
      "inputs": [
        {
          "indexed": false,
          "name": "limit",
          "type": "uint256"
        }
      ],
      "name": "DefaultLimitChanged",
      "type": "event"
    },
    {
      "anonymous": false,
      "inputs": [
        {
          "indexed": false,
          "name": "amount",
          "type": "uint256"
        },
        {
          "indexed": false,
          "name": "dst",
          "type": "address"
        }
      ],
      "name": "Withdraw",
      "type": "event"
    },
    {
      "anonymous": false,
      "inputs": [
        {
          "indexed": false,
          "name": "fundee",
          "type": "address"
        }
      ],
      "name": "Funded",
      "type": "event"
    },
    {
      "anonymous": false,
      "inputs": [
        {
          "indexed": false,
          "name": "state",
          "type": "bool"
        }
      ],
      "name": "SetFundingActive",
      "type": "event"
    },
    {
      "anonymous": false,
      "inputs": [
        {
          "indexed": false,
          "name": "account",
          "type": "address"
        },
        {
          "indexed": false,
          "name": "allowedAccess",
          "type": "bool"
        }
      ],
      "name": "AllowedAccess",
      "type": "event"
    },
    {
      "anonymous": false,
      "inputs": [
        {
          "indexed": true,
          "name": "_from",
          "type": "address"
        },
        {
          "indexed": true,
          "name": "_to",
          "type": "address"
        }
      ],
      "name": "OwnershipTransferred",
      "type": "event"
    },
    {
      "constant": false,
      "inputs": [],
      "name": "loadEther",
      "outputs": [],
      "payable": true,
      "stateMutability": "payable",
      "type": "function"
    },
    {
      "constant": false,
      "inputs": [
        {
          "name": "dst",
          "type": "address"
        }
      ],
      "name": "claimEther",
      "outputs": [],
      "payable": false,
      "stateMutability": "nonpayable",
      "type": "function"
    },
    {
      "constant": false,
      "inputs": [
        {
          "name": "newStipend",
          "type": "uint256"
        }
      ],
      "name": "setStipend",
      "outputs": [],
      "payable": false,
      "stateMutability": "nonpayable",
      "type": "function"
    },
    {
      "constant": false,
      "inputs": [
        {
          "name": "limit",
          "type": "uint256"
        }
      ],
      "name": "setDefaultLimit",
      "outputs": [],
      "payable": false,
      "stateMutability": "nonpayable",
      "type": "function"
    },
    {
      "constant": false,
      "inputs": [
        {
          "name": "limit",
          "type": "uint256"
        },
        {
          "name": "identity",
          "type": "address"
        }
      ],
      "name": "setLimitForAddress",
      "outputs": [],
      "payable": false,
      "stateMutability": "nonpayable",
      "type": "function"
    },
    {
      "constant": false,
      "inputs": [
        {
          "name": "_amount",
          "type": "uint256"
        }
      ],
      "name": "withdraw",
      "outputs": [],
      "payable": false,
      "stateMutability": "nonpayable",
      "type": "function"
    },
    {
      "constant": false,
      "inputs": [
        {
          "name": "state",
          "type": "bool"
        }
      ],
      "name": "setFundingActive",
      "outputs": [],
      "payable": false,
      "stateMutability": "nonpayable",
      "type": "function"
    }
  ],
  "bytecode": "0x60806040526001600760006101000a81548160ff021916908315150217905550600060085561270f600955662386f26fc10000600a5534801561004157600080fd5b50336000806101000a81548173ffffffffffffffffffffffffffffffffffffffff021916908373ffffffffffffffffffffffffffffffffffffffff16021790555061154a806100916000396000f3006080604052600436106100fc576000357c0100000000000000000000000000000000000000000000000000000000900463ffffffff16806302d4b135146101015780630f96662d1461014e57806320d7bec1146101585780632e1a7d4d146101af5780633152dd00146101dc57806345f9fc781461020b5780635cb02dd814610266578063672c90ef146102a95780637734ca48146102d457806379ba5097146103235780638da5cb5b1461033a578063995284b114610391578063af2d1c4a146103be578063c6788bdd146103ed578063d4ee1d9014610444578063d63a8e111461049b578063e77a4f03146104f6578063f2fde38b14610523575b600080fd5b34801561010d57600080fd5b5061014c60048036038101908080359060200190929190803573ffffffffffffffffffffffffffffffffffffffff169060200190929190505050610566565b005b6101566106da565b005b34801561016457600080fd5b50610199600480360381019080803573ffffffffffffffffffffffffffffffffffffffff169060200190929190505050610747565b6040518082815260200191505060405180910390f35b3480156101bb57600080fd5b506101da6004803603810190808035906020019092919050505061075f565b005b3480156101e857600080fd5b506101f161091a565b604051808215151515815260200191505060405180910390f35b34801561021757600080fd5b5061024c600480360381019080803573ffffffffffffffffffffffffffffffffffffffff16906020019092919050505061092d565b604051808215151515815260200191505060405180910390f35b34801561027257600080fd5b506102a7600480360381019080803573ffffffffffffffffffffffffffffffffffffffff16906020019092919050505061094d565b005b3480156102b557600080fd5b506102be610ca2565b6040518082815260200191505060405180910390f35b3480156102e057600080fd5b50610321600480360381019080803573ffffffffffffffffffffffffffffffffffffffff169060200190929190803515159060200190929190505050610ca8565b005b34801561032f57600080fd5b50610338610e36565b005b34801561034657600080fd5b5061034f61103e565b604051808273ffffffffffffffffffffffffffffffffffffffff1673ffffffffffffffffffffffffffffffffffffffff16815260200191505060405180910390f35b34801561039d57600080fd5b506103bc60048036038101908080359060200190929190505050611064565b005b3480156103ca57600080fd5b506103eb600480360381019080803515159060200190929190505050611166565b005b3480156103f957600080fd5b5061042e600480360381019080803573ffffffffffffffffffffffffffffffffffffffff169060200190929190505050611282565b6040518082815260200191505060405180910390f35b34801561045057600080fd5b5061045961129a565b604051808273ffffffffffffffffffffffffffffffffffffffff1673ffffffffffffffffffffffffffffffffffffffff16815260200191505060405180910390f35b3480156104a757600080fd5b506104dc600480360381019080803573ffffffffffffffffffffffffffffffffffffffff1690602001909291905050506112c0565b604051808215151515815260200191505060405180910390f35b34801561050257600080fd5b50610521600480360381019080803590602001909291905050506112e0565b005b34801561052f57600080fd5b50610564600480360381019080803573ffffffffffffffffffffffffffffffffffffffff169060200190929190505050611416565b005b600360003373ffffffffffffffffffffffffffffffffffffffff1673ffffffffffffffffffffffffffffffffffffffff16815260200190815260200160002060009054906101000a900460ff161515610627576040517f08c379a000000000000000000000000000000000000000000000000000000000815260040180806020018281038252601e8152602001807f416374696f6e206e6f7420616c6c6f77656420666f722073656e6465722e000081525060200191505060405180910390fd5b81600560008373ffffffffffffffffffffffffffffffffffffffff1673ffffffffffffffffffffffffffffffffffffffff168152602001908152602001600020819055507faa28fdc0439f169433bb4df6d2733ddee7a8e7e6509f837227fdfe12b6c0caf88282604051808381526020018273ffffffffffffffffffffffffffffffffffffffff1673ffffffffffffffffffffffffffffffffffffffff1681526020019250505060405180910390a15050565b7f40cf9f90afee37ccf1e9b4c4421118c1bf835afd8eb18a0fa0cb84877fe7cdaa3433604051808381526020018273ffffffffffffffffffffffffffffffffffffffff1673ffffffffffffffffffffffffffffffffffffffff1681526020019250505060405180910390a1565b60056020528060005260406000206000915090505481565b60008060009054906101000a900473ffffffffffffffffffffffffffffffffffffffff1673ffffffffffffffffffffffffffffffffffffffff163373ffffffffffffffffffffffffffffffffffffffff16141515610825576040517f08c379a00000000000000000000000000000000000000000000000000000000081526004018080602001828103825260178152602001807f4f6e6c79206f776e65722063616e20646f20746869732e00000000000000000081525060200191505060405180910390fd5b3073ffffffffffffffffffffffffffffffffffffffff163182116108495781610862565b3073ffffffffffffffffffffffffffffffffffffffff16315b90503373ffffffffffffffffffffffffffffffffffffffff166108fc829081150290604051600060405180830381858888f193505050501580156108aa573d6000803e3d6000fd5b507f8353ffcac0876ad14e226d9783c04540bfebf13871e868157d2a391cad98e9188133604051808381526020018273ffffffffffffffffffffffffffffffffffffffff1673ffffffffffffffffffffffffffffffffffffffff1681526020019250505060405180910390a15050565b600760009054906101000a900460ff1681565b60066020528060005260406000206000915054906101000a900460ff1681565b6000600360003373ffffffffffffffffffffffffffffffffffffffff1673ffffffffffffffffffffffffffffffffffffffff16815260200190815260200160002060009054906101000a900460ff161515610a10576040517f08c379a000000000000000000000000000000000000000000000000000000000815260040180806020018281038252601e8152602001807f416374696f6e206e6f7420616c6c6f77656420666f722073656e6465722e000081525060200191505060405180910390fd5b600a548273ffffffffffffffffffffffffffffffffffffffff1631101515610a3757610c9e565b6000600560008473ffffffffffffffffffffffffffffffffffffffff1673ffffffffffffffffffffffffffffffffffffffff168152602001908152602001600020541115610b1057600560008373ffffffffffffffffffffffffffffffffffffffff1673ffffffffffffffffffffffffffffffffffffffff16815260200190815260200160002054600460008473ffffffffffffffffffffffffffffffffffffffff1673ffffffffffffffffffffffffffffffffffffffff16815260200190815260200160002054101515610b0b57610c9e565b610b60565b600954600460008473ffffffffffffffffffffffffffffffffffffffff1673ffffffffffffffffffffffffffffffffffffffff16815260200190815260200160002054101515610b5f57610c9e565b5b8173ffffffffffffffffffffffffffffffffffffffff1631600a54039050803073ffffffffffffffffffffffffffffffffffffffff16311115610c9d5780600460008473ffffffffffffffffffffffffffffffffffffffff1673ffffffffffffffffffffffffffffffffffffffff168152602001908152602001600020600082825401925050819055508173ffffffffffffffffffffffffffffffffffffffff166108fc829081150290604051600060405180830381858888f19350505050158015610c30573d6000803e3d6000fd5b507f4d472b3c4c7c1930d0fabb285b98c29569d2919a93595ebe9f827c8c6045fd688282604051808373ffffffffffffffffffffffffffffffffffffffff1673ffffffffffffffffffffffffffffffffffffffff1681526020018281526020019250505060405180910390a15b5b5050565b60085481565b6000809054906101000a900473ffffffffffffffffffffffffffffffffffffffff1673ffffffffffffffffffffffffffffffffffffffff163373ffffffffffffffffffffffffffffffffffffffff16141515610d6c576040517f08c379a00000000000000000000000000000000000000000000000000000000081526004018080602001828103825260178152602001807f4f6e6c79206f776e65722063616e20646f20746869732e00000000000000000081525060200191505060405180910390fd5b80600360008473ffffffffffffffffffffffffffffffffffffffff1673ffffffffffffffffffffffffffffffffffffffff16815260200190815260200160002060006101000a81548160ff0219169083151502179055507f3bbb0bb3333f0e4023c7a8f801fa0f1f408a39f72dca5e3d77923f6190a2680b8282604051808373ffffffffffffffffffffffffffffffffffffffff1673ffffffffffffffffffffffffffffffffffffffff168152602001821515151581526020019250505060405180910390a15050565b600160009054906101000a900473ffffffffffffffffffffffffffffffffffffffff1673ffffffffffffffffffffffffffffffffffffffff163373ffffffffffffffffffffffffffffffffffffffff16141515610efb576040517f08c379a000000000000000000000000000000000000000000000000000000000815260040180806020018281038252601a8152602001807f4f6e6c79206e6577206f776e65722063616e206163636570742e00000000000081525060200191505060405180910390fd5b600160009054906101000a900473ffffffffffffffffffffffffffffffffffffffff1673ffffffffffffffffffffffffffffffffffffffff166000809054906101000a900473ffffffffffffffffffffffffffffffffffffffff1673ffffffffffffffffffffffffffffffffffffffff167f8be0079c531659141344cd1fd0a4f28419497f9722a3daafe3b4186f6b6457e060405160405180910390a3600160009054906101000a900473ffffffffffffffffffffffffffffffffffffffff166000806101000a81548173ffffffffffffffffffffffffffffffffffffffff021916908373ffffffffffffffffffffffffffffffffffffffff1602179055506000600160006101000a81548173ffffffffffffffffffffffffffffffffffffffff021916908373ffffffffffffffffffffffffffffffffffffffff160217905550565b600260009054906101000a900473ffffffffffffffffffffffffffffffffffffffff1681565b600360003373ffffffffffffffffffffffffffffffffffffffff1673ffffffffffffffffffffffffffffffffffffffff16815260200190815260200160002060009054906101000a900460ff161515611125576040517f08c379a000000000000000000000000000000000000000000000000000000000815260040180806020018281038252601e8152602001807f416374696f6e206e6f7420616c6c6f77656420666f722073656e6465722e000081525060200191505060405180910390fd5b806009819055507fdb5c408fae8ee6d3419cd1769f62a8fc5269ca8a3ad7f567bdd1a8f5a3eafec4816040518082815260200191505060405180910390a150565b6000809054906101000a900473ffffffffffffffffffffffffffffffffffffffff1673ffffffffffffffffffffffffffffffffffffffff163373ffffffffffffffffffffffffffffffffffffffff1614151561122a576040517f08c379a00000000000000000000000000000000000000000000000000000000081526004018080602001828103825260178152602001807f4f6e6c79206f776e65722063616e20646f20746869732e00000000000000000081525060200191505060405180910390fd5b80600760006101000a81548160ff0219169083151502179055507f332f5e4496c5e0107dc0f9535a23d52416ea38991c5f9d91e63ff5e3ecf92de981604051808215151515815260200191505060405180910390a150565b60046020528060005260406000206000915090505481565b600160009054906101000a900473ffffffffffffffffffffffffffffffffffffffff1681565b60036020528060005260406000206000915054906101000a900460ff1681565b600360003373ffffffffffffffffffffffffffffffffffffffff1673ffffffffffffffffffffffffffffffffffffffff16815260200190815260200160002060009054906101000a900460ff1615156113a1576040517f08c379a000000000000000000000000000000000000000000000000000000000815260040180806020018281038252601e8152602001807f416374696f6e206e6f7420616c6c6f77656420666f722073656e6465722e000081525060200191505060405180910390fd5b80600a819055507f15c0568a586d47c78710d9fb8720ae93b25a3031b8d7b6d51ebd3345bceaac4a8133604051808381526020018273ffffffffffffffffffffffffffffffffffffffff1673ffffffffffffffffffffffffffffffffffffffff1681526020019250505060405180910390a150565b6000809054906101000a900473ffffffffffffffffffffffffffffffffffffffff1673ffffffffffffffffffffffffffffffffffffffff163373ffffffffffffffffffffffffffffffffffffffff161415156114da576040517f08c379a00000000000000000000000000000000000000000000000000000000081526004018080602001828103825260178152602001807f4f6e6c79206f776e65722063616e20646f20746869732e00000000000000000081525060200191505060405180910390fd5b80600160006101000a81548173ffffffffffffffffffffffffffffffffffffffff021916908373ffffffffffffffffffffffffffffffffffffffff160217905550505600a165627a7a72305820b350b30a44bb011ea38810af3b74d85ab59c8fce43fcfa5f1a7339d1d43500120029",
  "source": "pragma solidity ^0.4.19;\r\n\r\nimport \"./AccessControlled.sol\";\r\n\r\ncontract EtherFaucet is AccessControlled {\r\n\r\n  event LoadEther(uint256 amount, address source);\r\n  event ClaimEther(address dst, uint256 amount);\r\n  event StipendChanged(uint256 newStipend, address operator);\r\n  event LimitChanged(uint256 limit, address identity);\r\n  event DefaultLimitChanged(uint256 limit);\r\n  event Withdraw(uint256 amount, address dst);\r\n  event Funded(address fundee);\r\n  event SetFundingActive(bool state);\r\n\r\n  mapping(address => uint256) public claims;\r\n  mapping(address => uint256) public limits;\r\n  mapping(address => bool) public funded;\r\n\r\n  bool public fundingActive = true;\r\n\r\n  uint256 public fundedAccounts = 0;\r\n\r\n  uint256 defaultLimit = 9999;\r\n\r\n  uint256 stipend = 0.01 ether;\r\n\r\n  modifier onlyFirstTime(address beneficiary) {\r\n      if (funded[beneficiary]) revert('Beneficiary already funded.');\r\n      _;\r\n  }\r\n\r\n  modifier onlyActive() {\r\n      if (!fundingActive) revert('Funding is currently disabled.');\r\n      _;\r\n  }\r\n\r\n  constructor() AccessControlled() public {}\r\n\r\n  function loadEther() public payable {\r\n    emit LoadEther(msg.value, msg.sender);\r\n  }\r\n\r\n  function claimEther(address dst) public onlyIfAllowed {\r\n    if (dst.balance >= stipend) return;\r\n    if (limits[dst] > 0) {\r\n      if (claims[dst] >= limits[dst]) return;\r\n    } else {\r\n      if (claims[dst] >= defaultLimit) return;\r\n    }\r\n    uint256 amount = stipend - dst.balance;\r\n    if (address(this).balance > amount) {\r\n      claims[dst] += amount;\r\n      dst.transfer(amount);\r\n      emit ClaimEther(dst, amount);\r\n    }\r\n  }\r\n\r\n  function setStipend(uint256 newStipend) public onlyIfAllowed {\r\n      stipend = newStipend;\r\n      emit StipendChanged(newStipend, msg.sender);\r\n  }\r\n\r\n  function setDefaultLimit(uint256 limit) public onlyIfAllowed {\r\n    defaultLimit = limit;\r\n    emit DefaultLimitChanged(limit);\r\n  }\r\n\r\n  function setLimitForAddress(uint256 limit, address identity) public onlyIfAllowed {\r\n    limits[identity] = limit;\r\n    emit LimitChanged(limit, identity);\r\n  }\r\n\r\n  function withdraw(uint256 _amount) public onlyOwner {\r\n    uint256 amount = _amount > address(this).balance ? address(this).balance : _amount;\r\n    msg.sender.transfer(amount);\r\n    emit Withdraw(amount, msg.sender);\r\n  }\r\n\r\n  function setFundingActive(bool state) public onlyOwner {\r\n      fundingActive = state;\r\n      emit SetFundingActive(state);\r\n  }\r\n\r\n}\r\n",
  "sourcePath": "C:\\Users\\X1 4Gen\\Developer\\cotown-contracts\\contracts\\EtherFaucet.sol",
  "compiler": {
    "name": "solc",
    "version": "0.4.22+commit.4cb486ee.Emscripten.clang"
  },
  "schemaVersion": "3.4.3",
  "updatedAt": "2022-02-05T17:38:16.507Z",
  "devdoc": {
    "methods": {}
  },
  "userdoc": {
    "methods": {}
  }
}