{
  "contractName": "Owned",
  "abi": [
    {
      "inputs": [],
      "stateMutability": "nonpayable",
      "type": "constructor"
    },
    {
      "anonymous": false,
      "inputs": [
        {
          "indexed": true,
          "internalType": "address",
          "name": "_from",
          "type": "address"
        },
        {
          "indexed": true,
          "internalType": "address",
          "name": "_to",
          "type": "address"
        }
      ],
      "name": "OwnershipTransferred",
      "type": "event"
    },
    {
      "inputs": [],
      "name": "currentOwner",
      "outputs": [
        {
          "internalType": "address",
          "name": "",
          "type": "address"
        }
      ],
      "stateMutability": "view",
      "type": "function"
    },
    {
      "inputs": [],
      "name": "newOwner",
      "outputs": [
        {
          "internalType": "address",
          "name": "",
          "type": "address"
        }
      ],
      "stateMutability": "view",
      "type": "function"
    },
    {
      "inputs": [
        {
          "internalType": "address",
          "name": "_newOwner",
          "type": "address"
        }
      ],
      "name": "transferOwnership",
      "outputs": [],
      "stateMutability": "nonpayable",
      "type": "function"
    },
    {
      "inputs": [],
      "name": "acceptOwnership",
      "outputs": [],
      "stateMutability": "nonpayable",
      "type": "function"
    }
  ],
  "bytecode": "0x608060405234801561001057600080fd5b50336000806101000a81548173ffffffffffffffffffffffffffffffffffffffff021916908373ffffffffffffffffffffffffffffffffffffffff160217905550610597806100606000396000f3fe608060405234801561001057600080fd5b5060043610610069576000357c01000000000000000000000000000000000000000000000000000000009004806379ba50971461006e578063b387ef9214610078578063d4ee1d9014610096578063f2fde38b146100b4575b600080fd5b6100766100d0565b005b6100806102a2565b60405161008d91906103ff565b60405180910390f35b61009e6102c6565b6040516100ab91906103ff565b60405180910390f35b6100ce60048036038101906100c9919061044b565b6102ec565b005b600160009054906101000a900473ffffffffffffffffffffffffffffffffffffffff1673ffffffffffffffffffffffffffffffffffffffff163373ffffffffffffffffffffffffffffffffffffffff1614610160576040517f08c379a0000000000000000000000000000000000000000000000000000000008152600401610157906104d5565b60405180910390fd5b600160009054906101000a900473ffffffffffffffffffffffffffffffffffffffff1673ffffffffffffffffffffffffffffffffffffffff1660008054906101000a900473ffffffffffffffffffffffffffffffffffffffff1673ffffffffffffffffffffffffffffffffffffffff167f8be0079c531659141344cd1fd0a4f28419497f9722a3daafe3b4186f6b6457e060405160405180910390a3600160009054906101000a900473ffffffffffffffffffffffffffffffffffffffff166000806101000a81548173ffffffffffffffffffffffffffffffffffffffff021916908373ffffffffffffffffffffffffffffffffffffffff1602179055506000600160006101000a81548173ffffffffffffffffffffffffffffffffffffffff021916908373ffffffffffffffffffffffffffffffffffffffff160217905550565b60008054906101000a900473ffffffffffffffffffffffffffffffffffffffff1681565b600160009054906101000a900473ffffffffffffffffffffffffffffffffffffffff1681565b60008054906101000a900473ffffffffffffffffffffffffffffffffffffffff1673ffffffffffffffffffffffffffffffffffffffff163373ffffffffffffffffffffffffffffffffffffffff161461037a576040517f08c379a000000000000000000000000000000000000000000000000000000000815260040161037190610541565b60405180910390fd5b80600160006101000a81548173ffffffffffffffffffffffffffffffffffffffff021916908373ffffffffffffffffffffffffffffffffffffffff16021790555050565b600073ffffffffffffffffffffffffffffffffffffffff82169050919050565b60006103e9826103be565b9050919050565b6103f9816103de565b82525050565b600060208201905061041460008301846103f0565b92915050565b600080fd5b610428816103de565b811461043357600080fd5b50565b6000813590506104458161041f565b92915050565b6000602082840312156104615761046061041a565b5b600061046f84828501610436565b91505092915050565b600082825260208201905092915050565b7f4f6e6c79206e6577206f776e65722063616e206163636570742e000000000000600082015250565b60006104bf601a83610478565b91506104ca82610489565b602082019050919050565b600060208201905081810360008301526104ee816104b2565b9050919050565b7f4f6e6c79206f776e65722063616e20646f20746869732e000000000000000000600082015250565b600061052b601783610478565b9150610536826104f5565b602082019050919050565b6000602082019050818103600083015261055a8161051e565b905091905056fea264697066735822122006f6b24f363bf2918f612dec4d4a3c24ca4ea293879cbf88e32f4a87467e104064736f6c634300080b0033",
  "immutableReferences": {},
  "source": "pragma solidity ^0.8.11;\r\n\r\n// ----------------------------------------------------------------------------\r\n// The standard Owned base implementation\r\n// ----------------------------------------------------------------------------\r\n\r\n//SPDX-License-Identifier: LGPL\r\ncontract Owned {\r\n    address public currentOwner;\r\n    address public newOwner;\r\n\r\n    event OwnershipTransferred(address indexed _from, address indexed _to);\r\n\r\n    constructor() {\r\n        currentOwner = msg.sender;\r\n    }\r\n\r\n    modifier onlyOwner() {\r\n        require(msg.sender == currentOwner, \"Only owner can do this.\");\r\n        _;\r\n    }\r\n\r\n    function transferOwnership(address _newOwner) public onlyOwner {\r\n        newOwner = _newOwner;\r\n    }\r\n\r\n    function acceptOwnership() public {\r\n        require(msg.sender == newOwner, \"Only new owner can accept.\");\r\n        emit OwnershipTransferred(currentOwner, newOwner);\r\n        currentOwner = newOwner;\r\n        newOwner = address(0);\r\n    }\r\n}\r\n",
  "sourcePath": "C:\\Users\\X1 4Gen\\Developer\\cotown-contracts\\contracts\\Owned.sol",
  "compiler": {
    "name": "solc",
    "version": "0.8.11+commit.d7f03943.Emscripten.clang"
  },
  "schemaVersion": "3.4.3",
  "updatedAt": "2022-02-06T15:12:49.218Z",
  "devdoc": {
    "kind": "dev",
    "methods": {},
    "version": 1
  },
  "userdoc": {
    "kind": "user",
    "methods": {},
    "version": 1
  }
}